{
    "abi": [
        {
            "type": "constructor",
            "inputs": [],
            "stateMutability": "nonpayable"
        },
        {
            "type": "function",
            "name": "UserAddressToProposalIdToVoteId",
            "inputs": [
                {
                    "name": "",
                    "type": "address",
                    "internalType": "address"
                },
                {
                    "name": "",
                    "type": "bytes32",
                    "internalType": "bytes32"
                }
            ],
            "outputs": [
                {
                    "name": "",
                    "type": "bytes32",
                    "internalType": "bytes32"
                }
            ],
            "stateMutability": "view"
        },
        {
            "type": "function",
            "name": "addMemberToDao",
            "inputs": [
                {
                    "name": "_memberEmail",
                    "type": "string",
                    "internalType": "string"
                },
                {
                    "name": "_memberAddress",
                    "type": "address",
                    "internalType": "address"
                },
                {
                    "name": "_daoId",
                    "type": "bytes32",
                    "internalType": "bytes32"
                }
            ],
            "outputs": [],
            "stateMutability": "nonpayable"
        },
        {
            "type": "function",
            "name": "calculateProposalOutcome",
            "inputs": [
                {
                    "name": "_proposalId",
                    "type": "bytes32",
                    "internalType": "bytes32"
                }
            ],
            "outputs": [],
            "stateMutability": "nonpayable"
        },
        {
            "type": "function",
            "name": "createDao",
            "inputs": [
                {
                    "name": "_daoLocation",
                    "type": "string",
                    "internalType": "string"
                },
                {
                    "name": "_daoObjective",
                    "type": "string",
                    "internalType": "string"
                },
                {
                    "name": "_daoTargetAudience",
                    "type": "string",
                    "internalType": "string"
                },
                {
                    "name": "_daoName",
                    "type": "string",
                    "internalType": "string"
                }
            ],
            "outputs": [],
            "stateMutability": "nonpayable"
        },
        {
            "type": "function",
            "name": "createProposal",
            "inputs": [
                {
                    "name": "_proposalUrl",
                    "type": "string",
                    "internalType": "string"
                },
                {
                    "name": "_proposalTitle",
                    "type": "string",
                    "internalType": "string"
                },
                {
                    "name": "_daoId",
                    "type": "bytes32",
                    "internalType": "bytes32"
                }
            ],
            "outputs": [],
            "stateMutability": "nonpayable"
        },
        {
            "type": "function",
            "name": "doesProposalTitleXExistinDaoIdY",
            "inputs": [
                {
                    "name": "_proposalTitle",
                    "type": "string",
                    "internalType": "string"
                },
                {
                    "name": "_daoId",
                    "type": "bytes32",
                    "internalType": "bytes32"
                }
            ],
            "outputs": [
                {
                    "name": "",
                    "type": "bool",
                    "internalType": "bool"
                }
            ],
            "stateMutability": "view"
        },
        {
            "type": "function",
            "name": "doesProposalXExistInDaoY",
            "inputs": [
                {
                    "name": "_proposalId",
                    "type": "bytes32",
                    "internalType": "bytes32"
                },
                {
                    "name": "_daoId",
                    "type": "bytes32",
                    "internalType": "bytes32"
                }
            ],
            "outputs": [
                {
                    "name": "",
                    "type": "bool",
                    "internalType": "bool"
                }
            ],
            "stateMutability": "view"
        },
        {
            "type": "function",
            "name": "downVote",
            "inputs": [
                {
                    "name": "_proposalId",
                    "type": "bytes32",
                    "internalType": "bytes32"
                },
                {
                    "name": "_daoId",
                    "type": "bytes32",
                    "internalType": "bytes32"
                }
            ],
            "outputs": [],
            "stateMutability": "nonpayable"
        },
        {
            "type": "function",
            "name": "getDaoCreatorByDaoId",
            "inputs": [
                {
                    "name": "_daoId",
                    "type": "bytes32",
                    "internalType": "bytes32"
                }
            ],
            "outputs": [
                {
                    "name": "",
                    "type": "address",
                    "internalType": "address"
                }
            ],
            "stateMutability": "view"
        },
        {
            "type": "function",
            "name": "getDaoIdsByCreatorAddress",
            "inputs": [
                {
                    "name": "_creator",
                    "type": "address",
                    "internalType": "address"
                }
            ],
            "outputs": [
                {
                    "name": "",
                    "type": "bytes32[]",
                    "internalType": "bytes32[]"
                }
            ],
            "stateMutability": "view"
        },
        {
            "type": "function",
            "name": "getDaoMembers",
            "inputs": [
                {
                    "name": "_daoId",
                    "type": "bytes32",
                    "internalType": "bytes32"
                }
            ],
            "outputs": [
                {
                    "name": "",
                    "type": "tuple[]",
                    "internalType": "struct WashikaDao.MemberDetails[]",
                    "components": [
                        {
                            "name": "memberEmail",
                            "type": "string",
                            "internalType": "string"
                        },
                        {
                            "name": "memberAddress",
                            "type": "address",
                            "internalType": "address"
                        }
                    ]
                }
            ],
            "stateMutability": "view"
        },
        {
            "type": "function",
            "name": "getDaoMultisigByDaoId",
            "inputs": [
                {
                    "name": "_daoId",
                    "type": "bytes32",
                    "internalType": "bytes32"
                }
            ],
            "outputs": [
                {
                    "name": "",
                    "type": "address",
                    "internalType": "address"
                }
            ],
            "stateMutability": "view"
        },
        {
            "type": "function",
            "name": "getDaosInPlatformArr",
            "inputs": [],
            "outputs": [
                {
                    "name": "",
                    "type": "tuple[]",
                    "internalType": "struct WashikaDao.DaoDetails[]",
                    "components": [
                        {
                            "name": "daoName",
                            "type": "string",
                            "internalType": "string"
                        },
                        {
                            "name": "daoLocation",
                            "type": "string",
                            "internalType": "string"
                        },
                        {
                            "name": "daoObjective",
                            "type": "string",
                            "internalType": "string"
                        },
                        {
                            "name": "daoTargetAudience",
                            "type": "string",
                            "internalType": "string"
                        },
                        {
                            "name": "daoCreator",
                            "type": "address",
                            "internalType": "address"
                        },
                        {
                            "name": "daoId",
                            "type": "bytes32",
                            "internalType": "bytes32"
                        }
                    ]
                }
            ],
            "stateMutability": "view"
        },
        {
            "type": "function",
            "name": "getDownVotes",
            "inputs": [
                {
                    "name": "_proposalId",
                    "type": "bytes32",
                    "internalType": "bytes32"
                }
            ],
            "outputs": [
                {
                    "name": "",
                    "type": "uint256",
                    "internalType": "uint256"
                }
            ],
            "stateMutability": "view"
        },
        {
            "type": "function",
            "name": "getLatestDaoIdByCreatorX",
            "inputs": [
                {
                    "name": "_creator",
                    "type": "address",
                    "internalType": "address"
                }
            ],
            "outputs": [
                {
                    "name": "",
                    "type": "bytes32",
                    "internalType": "bytes32"
                }
            ],
            "stateMutability": "view"
        },
        {
            "type": "function",
            "name": "getMemberDetails",
            "inputs": [
                {
                    "name": "_memberEmail",
                    "type": "string",
                    "internalType": "string"
                }
            ],
            "outputs": [
                {
                    "name": "",
                    "type": "tuple[]",
                    "internalType": "struct WashikaDao.MemberDetails[]",
                    "components": [
                        {
                            "name": "memberEmail",
                            "type": "string",
                            "internalType": "string"
                        },
                        {
                            "name": "memberAddress",
                            "type": "address",
                            "internalType": "address"
                        }
                    ]
                }
            ],
            "stateMutability": "view"
        },
        {
            "type": "function",
            "name": "getProposalIdByTitle",
            "inputs": [
                {
                    "name": "_proposalTitle",
                    "type": "string",
                    "internalType": "string"
                }
            ],
            "outputs": [
                {
                    "name": "",
                    "type": "bytes32",
                    "internalType": "bytes32"
                }
            ],
            "stateMutability": "view"
        },
        {
            "type": "function",
            "name": "getProposalOutcome",
            "inputs": [
                {
                    "name": "_proposalId",
                    "type": "bytes32",
                    "internalType": "bytes32"
                }
            ],
            "outputs": [
                {
                    "name": "",
                    "type": "string",
                    "internalType": "string"
                }
            ],
            "stateMutability": "view"
        },
        {
            "type": "function",
            "name": "getProposalOwnerById",
            "inputs": [
                {
                    "name": "_proposalId",
                    "type": "bytes32",
                    "internalType": "bytes32"
                }
            ],
            "outputs": [
                {
                    "name": "",
                    "type": "address",
                    "internalType": "address"
                }
            ],
            "stateMutability": "view"
        },
        {
            "type": "function",
            "name": "getProposalOwnerByTitle",
            "inputs": [
                {
                    "name": "_proposalTitle",
                    "type": "string",
                    "internalType": "string"
                }
            ],
            "outputs": [
                {
                    "name": "",
                    "type": "address",
                    "internalType": "address"
                }
            ],
            "stateMutability": "view"
        },
        {
            "type": "function",
            "name": "getProposalXById",
            "inputs": [
                {
                    "name": "_proposalId",
                    "type": "bytes32",
                    "internalType": "bytes32"
                }
            ],
            "outputs": [
                {
                    "name": "",
                    "type": "tuple",
                    "internalType": "struct WashikaDao.ProposalDetails",
                    "components": [
                        {
                            "name": "proposalOwner",
                            "type": "address",
                            "internalType": "address"
                        },
                        {
                            "name": "proposalId",
                            "type": "bytes32",
                            "internalType": "bytes32"
                        },
                        {
                            "name": "daoId",
                            "type": "bytes32",
                            "internalType": "bytes32"
                        },
                        {
                            "name": "proposalUrl",
                            "type": "string",
                            "internalType": "string"
                        },
                        {
                            "name": "proposalTitle",
                            "type": "string",
                            "internalType": "string"
                        },
                        {
                            "name": "proposalStatus",
                            "type": "string",
                            "internalType": "string"
                        },
                        {
                            "name": "proposalCreatedAt",
                            "type": "uint256",
                            "internalType": "uint256"
                        }
                    ]
                }
            ],
            "stateMutability": "view"
        },
        {
            "type": "function",
            "name": "getProposals",
            "inputs": [
                {
                    "name": "_daoId",
                    "type": "bytes32",
                    "internalType": "bytes32"
                }
            ],
            "outputs": [
                {
                    "name": "",
                    "type": "tuple[]",
                    "internalType": "struct WashikaDao.ProposalDetails[]",
                    "components": [
                        {
                            "name": "proposalOwner",
                            "type": "address",
                            "internalType": "address"
                        },
                        {
                            "name": "proposalId",
                            "type": "bytes32",
                            "internalType": "bytes32"
                        },
                        {
                            "name": "daoId",
                            "type": "bytes32",
                            "internalType": "bytes32"
                        },
                        {
                            "name": "proposalUrl",
                            "type": "string",
                            "internalType": "string"
                        },
                        {
                            "name": "proposalTitle",
                            "type": "string",
                            "internalType": "string"
                        },
                        {
                            "name": "proposalStatus",
                            "type": "string",
                            "internalType": "string"
                        },
                        {
                            "name": "proposalCreatedAt",
                            "type": "uint256",
                            "internalType": "uint256"
                        }
                    ]
                }
            ],
            "stateMutability": "view"
        },
        {
            "type": "function",
            "name": "getUpVotes",
            "inputs": [
                {
                    "name": "_proposalId",
                    "type": "bytes32",
                    "internalType": "bytes32"
                }
            ],
            "outputs": [
                {
                    "name": "",
                    "type": "uint256",
                    "internalType": "uint256"
                }
            ],
            "stateMutability": "view"
        },
        {
            "type": "function",
            "name": "getVoteIdByUserAddress",
            "inputs": [
                {
                    "name": "_userAddress",
                    "type": "address",
                    "internalType": "address"
                },
                {
                    "name": "_proposalId",
                    "type": "bytes32",
                    "internalType": "bytes32"
                }
            ],
            "outputs": [
                {
                    "name": "",
                    "type": "bytes32",
                    "internalType": "bytes32"
                }
            ],
            "stateMutability": "view"
        },
        {
            "type": "function",
            "name": "getVoteXById",
            "inputs": [
                {
                    "name": "_voteId",
                    "type": "bytes32",
                    "internalType": "bytes32"
                }
            ],
            "outputs": [
                {
                    "name": "",
                    "type": "tuple",
                    "internalType": "struct WashikaDao.VoteDetails",
                    "components": [
                        {
                            "name": "voterAddress",
                            "type": "address",
                            "internalType": "address"
                        },
                        {
                            "name": "proposalId",
                            "type": "bytes32",
                            "internalType": "bytes32"
                        },
                        {
                            "name": "daoId",
                            "type": "bytes32",
                            "internalType": "bytes32"
                        },
                        {
                            "name": "voteId",
                            "type": "bytes32",
                            "internalType": "bytes32"
                        },
                        {
                            "name": "voteType",
                            "type": "bool",
                            "internalType": "bool"
                        }
                    ]
                }
            ],
            "stateMutability": "view"
        },
        {
            "type": "function",
            "name": "hasVoted",
            "inputs": [
                {
                    "name": "userAddress",
                    "type": "address",
                    "internalType": "address"
                },
                {
                    "name": "proposalId",
                    "type": "bytes32",
                    "internalType": "bytes32"
                }
            ],
            "outputs": [
                {
                    "name": "voted",
                    "type": "bool",
                    "internalType": "bool"
                }
            ],
            "stateMutability": "view"
        },
        {
            "type": "function",
            "name": "isDaoCreator",
            "inputs": [
                {
                    "name": "_userAddress",
                    "type": "address",
                    "internalType": "address"
                },
                {
                    "name": "_daoId",
                    "type": "bytes32",
                    "internalType": "bytes32"
                }
            ],
            "outputs": [
                {
                    "name": "",
                    "type": "bool",
                    "internalType": "bool"
                }
            ],
            "stateMutability": "view"
        },
        {
            "type": "function",
            "name": "isMember",
            "inputs": [
                {
                    "name": "",
                    "type": "bytes32",
                    "internalType": "bytes32"
                },
                {
                    "name": "",
                    "type": "address",
                    "internalType": "address"
                }
            ],
            "outputs": [
                {
                    "name": "",
                    "type": "bool",
                    "internalType": "bool"
                }
            ],
            "stateMutability": "view"
        },
        {
            "type": "function",
            "name": "isMultiSigAlreadySet",
            "inputs": [
                {
                    "name": "_daoMultiSig",
                    "type": "address",
                    "internalType": "address"
                },
                {
                    "name": "_daoId",
                    "type": "bytes32",
                    "internalType": "bytes32"
                }
            ],
            "outputs": [
                {
                    "name": "",
                    "type": "bool",
                    "internalType": "bool"
                }
            ],
            "stateMutability": "view"
        },
        {
            "type": "function",
            "name": "isYMemberOfDaoX",
            "inputs": [
                {
                    "name": "_daoId",
                    "type": "bytes32",
                    "internalType": "bytes32"
                },
                {
                    "name": "_userAddress",
                    "type": "address",
                    "internalType": "address"
                }
            ],
            "outputs": [
                {
                    "name": "",
                    "type": "bool",
                    "internalType": "bool"
                }
            ],
            "stateMutability": "view"
        },
        {
            "type": "function",
            "name": "memberDetails",
            "inputs": [
                {
                    "name": "",
                    "type": "uint256",
                    "internalType": "uint256"
                }
            ],
            "outputs": [
                {
                    "name": "memberEmail",
                    "type": "string",
                    "internalType": "string"
                },
                {
                    "name": "memberAddress",
                    "type": "address",
                    "internalType": "address"
                }
            ],
            "stateMutability": "view"
        },
        {
            "type": "function",
            "name": "platformDaoList",
            "inputs": [
                {
                    "name": "",
                    "type": "uint256",
                    "internalType": "uint256"
                }
            ],
            "outputs": [
                {
                    "name": "daoName",
                    "type": "string",
                    "internalType": "string"
                },
                {
                    "name": "daoLocation",
                    "type": "string",
                    "internalType": "string"
                },
                {
                    "name": "daoObjective",
                    "type": "string",
                    "internalType": "string"
                },
                {
                    "name": "daoTargetAudience",
                    "type": "string",
                    "internalType": "string"
                },
                {
                    "name": "daoCreator",
                    "type": "address",
                    "internalType": "address"
                },
                {
                    "name": "daoId",
                    "type": "bytes32",
                    "internalType": "bytes32"
                }
            ],
            "stateMutability": "view"
        },
        {
            "type": "function",
            "name": "platformProposalList",
            "inputs": [
                {
                    "name": "",
                    "type": "uint256",
                    "internalType": "uint256"
                }
            ],
            "outputs": [
                {
                    "name": "proposalOwner",
                    "type": "address",
                    "internalType": "address"
                },
                {
                    "name": "proposalId",
                    "type": "bytes32",
                    "internalType": "bytes32"
                },
                {
                    "name": "daoId",
                    "type": "bytes32",
                    "internalType": "bytes32"
                },
                {
                    "name": "proposalUrl",
                    "type": "string",
                    "internalType": "string"
                },
                {
                    "name": "proposalTitle",
                    "type": "string",
                    "internalType": "string"
                },
                {
                    "name": "proposalStatus",
                    "type": "string",
                    "internalType": "string"
                },
                {
                    "name": "proposalCreatedAt",
                    "type": "uint256",
                    "internalType": "uint256"
                }
            ],
            "stateMutability": "view"
        },
        {
            "type": "function",
            "name": "setDaoMultiSigById",
            "inputs": [
                {
                    "name": "_daoMultiSig",
                    "type": "address",
                    "internalType": "address"
                },
                {
                    "name": "_daoId",
                    "type": "bytes32",
                    "internalType": "bytes32"
                }
            ],
            "outputs": [],
            "stateMutability": "nonpayable"
        },
        {
            "type": "function",
            "name": "upVote",
            "inputs": [
                {
                    "name": "_proposalId",
                    "type": "bytes32",
                    "internalType": "bytes32"
                },
                {
                    "name": "_daoId",
                    "type": "bytes32",
                    "internalType": "bytes32"
                }
            ],
            "outputs": [],
            "stateMutability": "nonpayable"
        },
        {
            "type": "function",
            "name": "voteDetails",
            "inputs": [
                {
                    "name": "",
                    "type": "uint256",
                    "internalType": "uint256"
                }
            ],
            "outputs": [
                {
                    "name": "voterAddress",
                    "type": "address",
                    "internalType": "address"
                },
                {
                    "name": "proposalId",
                    "type": "bytes32",
                    "internalType": "bytes32"
                },
                {
                    "name": "daoId",
                    "type": "bytes32",
                    "internalType": "bytes32"
                },
                {
                    "name": "voteId",
                    "type": "bytes32",
                    "internalType": "bytes32"
                },
                {
                    "name": "voteType",
                    "type": "bool",
                    "internalType": "bool"
                }
            ],
            "stateMutability": "view"
        },
        {
            "type": "event",
            "name": "DAOCREATED",
            "inputs": [
                {
                    "name": "daoId",
                    "type": "bytes32",
                    "indexed": true,
                    "internalType": "bytes32"
                },
                {
                    "name": "daoCreator",
                    "type": "address",
                    "indexed": true,
                    "internalType": "address"
                },
                {
                    "name": "daoName",
                    "type": "string",
                    "indexed": false,
                    "internalType": "string"
                }
            ],
            "anonymous": false
        },
        {
            "type": "event",
            "name": "DAOMSIGSET",
            "inputs": [
                {
                    "name": "daoId",
                    "type": "bytes32",
                    "indexed": true,
                    "internalType": "bytes32"
                },
                {
                    "name": "daoMultiSig",
                    "type": "address",
                    "indexed": true,
                    "internalType": "address"
                }
            ],
            "anonymous": false
        },
        {
            "type": "event",
            "name": "DOWNVOTED",
            "inputs": [
                {
                    "name": "voterAddress",
                    "type": "address",
                    "indexed": true,
                    "internalType": "address"
                },
                {
                    "name": "daoId",
                    "type": "bytes32",
                    "indexed": true,
                    "internalType": "bytes32"
                },
                {
                    "name": "proposalId",
                    "type": "bytes32",
                    "indexed": false,
                    "internalType": "bytes32"
                },
                {
                    "name": "voteId",
                    "type": "bytes32",
                    "indexed": false,
                    "internalType": "bytes32"
                }
            ],
            "anonymous": false
        },
        {
            "type": "event",
            "name": "MEMBERADDED",
            "inputs": [
                {
                    "name": "daoId",
                    "type": "bytes32",
                    "indexed": true,
                    "internalType": "bytes32"
                },
                {
                    "name": "userAddress",
                    "type": "address",
                    "indexed": true,
                    "internalType": "address"
                }
            ],
            "anonymous": false
        },
        {
            "type": "event",
            "name": "PROPOSALCREATED",
            "inputs": [
                {
                    "name": "daoId",
                    "type": "bytes32",
                    "indexed": true,
                    "internalType": "bytes32"
                },
                {
                    "name": "proposalCreator",
                    "type": "address",
                    "indexed": true,
                    "internalType": "address"
                },
                {
                    "name": "proposalId",
                    "type": "bytes32",
                    "indexed": false,
                    "internalType": "bytes32"
                }
            ],
            "anonymous": false
        },
        {
            "type": "event",
            "name": "UPVOTED",
            "inputs": [
                {
                    "name": "voterAddress",
                    "type": "address",
                    "indexed": true,
                    "internalType": "address"
                },
                {
                    "name": "daoId",
                    "type": "bytes32",
                    "indexed": true,
                    "internalType": "bytes32"
                },
                {
                    "name": "proposalId",
                    "type": "bytes32",
                    "indexed": false,
                    "internalType": "bytes32"
                },
                {
                    "name": "voteId",
                    "type": "bytes32",
                    "indexed": false,
                    "internalType": "bytes32"
                }
            ],
            "anonymous": false
        }
    ],
    "bytecode": {
        "object": "0x608060405260fe6018553480156013575f5ffd5b503360175f6101000a81548173ffffffffffffffffffffffffffffffffffffffff021916908373ffffffffffffffffffffffffffffffffffffffff160217905550615b17806100615f395ff3fe608060405234801561000f575f5ffd5b506004361061021a575f3560e01c80638d77544511610123578063c9471aa1116100ab578063db5197381161007a578063db51973814610788578063db5ba9ca146107b8578063ddc0b4f1146107d4578063ecf57cc914610804578063fe1d3fd2146108205761021a565b8063c9471aa1146106dc578063cd2012411461070c578063d303b3ef1461073c578063d32680df146107585761021a565b8063b6d56e5f116100f2578063b6d56e5f146105fe578063baa94c6e1461062e578063bcb74f521461065e578063bdd73fb91461067c578063c3419495146106ac5761021a565b80638d7754451461054c5780638e93088d146105825780639316e7541461059e578063b1ea29c6146105ce5761021a565b806362932d2c116101a657806371e25d001161017557806371e25d001461045657806374afc4db1461048657806375b7fabb146104b757806385844c7e146104e757806386c7be58146105175761021a565b806362932d2c1461039657806367aecd27146103c65780636e2a2f5e146103f6578063705a485d146104265761021a565b8063200549d5116101ed578063200549d5146102ca5780634140a61d146102fe5780634a1dc5cc1461031a5780634b1d60ea1461034a5780635977c163146103665761021a565b806310ad56b31461021e57806316d8dfdd1461024e5780631b44c40e1461027e5780631c42a6941461029a575b5f5ffd5b61023860048036038101906102339190614181565b610850565b60405161024591906141d9565b60405180910390f35b610268600480360381019061026391906141f2565b61087a565b60405161027591906142d4565b60405180910390f35b61029860048036038101906102939190614430565b6109fd565b005b6102b460048036038101906102af9190614504565b610c25565b6040516102c19190614718565b60405180910390f35b6102e460048036038101906102df9190614762565b610efc565b6040516102f59594939291906147ab565b60405180910390f35b610318600480360381019061031391906147fc565b610f68565b005b610334600480360381019061032f9190614884565b611362565b60405161034191906141d9565b60405180910390f35b610364600480360381019061035f9190614884565b61138c565b005b610380600480360381019061037b9190614504565b6115b5565b60405161038d9190614969565b60405180910390f35b6103b060048036038101906103ab9190614504565b61189c565b6040516103bd91906149fe565b60405180910390f35b6103e060048036038101906103db9190614504565b6119ed565b6040516103ed9190614a17565b60405180910390f35b610410600480360381019061040b9190614504565b611a73565b60405161041d9190614b25565b60405180910390f35b610440600480360381019061043b9190614504565b611c0c565b60405161044d9190614a17565b60405180910390f35b610470600480360381019061046b91906141f2565b611c4a565b60405161047d9190614b45565b60405180910390f35b6104a0600480360381019061049b9190614762565b611d05565b6040516104ae929190614ba6565b60405180910390f35b6104d160048036038101906104cc9190614504565b611dd9565b6040516104de9190614be3565b60405180910390f35b61050160048036038101906104fc9190614884565b611f3a565b60405161050e91906141d9565b60405180910390f35b610531600480360381019061052c9190614762565b611ff9565b60405161054396959493929190614bfc565b60405180910390f35b61056660048036038101906105619190614762565b612276565b6040516105799796959493929190614c77565b60405180910390f35b61059c60048036038101906105979190614504565b612474565b005b6105b860048036038101906105b39190614cf9565b61270f565b6040516105c59190614b45565b60405180910390f35b6105e860048036038101906105e39190614504565b61273b565b6040516105f59190614be3565b60405180910390f35b61061860048036038101906106139190614d40565b61289d565b60405161062591906141d9565b60405180910390f35b61064860048036038101906106439190614884565b612911565b60405161065591906141d9565b60405180910390f35b6106666129d0565b6040516106739190614ed4565b60405180910390f35b61069660048036038101906106919190614cf9565b612cc9565b6040516106a39190614a17565b60405180910390f35b6106c660048036038101906106c19190614181565b612cec565b6040516106d391906141d9565b60405180910390f35b6106f660048036038101906106f19190614ef4565b612e04565b60405161070391906141d9565b60405180910390f35b61072660048036038101906107219190614884565b612e85565b6040516107339190614b45565b60405180910390f35b61075660048036038101906107519190614f4e565b612ea5565b005b610772600480360381019061076d9190614504565b6131e6565b60405161077f9190614fba565b60405180910390f35b6107a2600480360381019061079d9190614884565b6132ce565b6040516107af9190614b45565b60405180910390f35b6107d260048036038101906107cd9190614d40565b613324565b005b6107ee60048036038101906107e99190614504565b613738565b6040516107fb9190614a17565b60405180910390f35b61081e60048036038101906108199190614d40565b6137be565b005b61083a60048036038101906108359190614cf9565b613bd1565b6040516108479190614b25565b60405180910390f35b6016602052815f5260405f20602052805f5260405f205f915091509054906101000a900460ff1681565b60605f73ffffffffffffffffffffffffffffffffffffffff168273ffffffffffffffffffffffffffffffffffffffff16036108ea576040517f08c379a00000000000000000000000000000000000000000000000000000000081526004016108e190615024565b60405180910390fd5b5f60055f8473ffffffffffffffffffffffffffffffffffffffff1673ffffffffffffffffffffffffffffffffffffffff1681526020019081526020015f20805490501161096c576040517f08c379a00000000000000000000000000000000000000000000000000000000081526004016109639061508c565b60405180910390fd5b60055f8373ffffffffffffffffffffffffffffffffffffffff1673ffffffffffffffffffffffffffffffffffffffff1681526020019081526020015f208054806020026020016040519081016040528092919081815260200182805480156109f157602002820191905f5260205f20905b8154815260200190600101908083116109dd575b50505050509050919050565b5f610a06613e83565b90505f6040518060c001604052808481526020018781526020018681526020018581526020013373ffffffffffffffffffffffffffffffffffffffff1681526020018381525090505f81908060018154018082558091505060019003905f5260205f2090600602015f909190919091505f820151815f019081610a8991906152a7565b506020820151816001019081610a9f91906152a7565b506040820151816002019081610ab591906152a7565b506060820151816003019081610acb91906152a7565b506080820151816004015f6101000a81548173ffffffffffffffffffffffffffffffffffffffff021916908373ffffffffffffffffffffffffffffffffffffffff16021790555060a08201518160050155505060055f3373ffffffffffffffffffffffffffffffffffffffff1673ffffffffffffffffffffffffffffffffffffffff1681526020019081526020015f2082908060018154018082558091505060019003905f5260205f20015f90919091909150553360065f8481526020019081526020015f205f6101000a81548173ffffffffffffffffffffffffffffffffffffffff021916908373ffffffffffffffffffffffffffffffffffffffff1602179055503373ffffffffffffffffffffffffffffffffffffffff16827fa1a00221d27df639973fe5bac0f2635af545323f717e4e79bbce74f90917b9c085604051610c159190614fba565b60405180910390a3505050505050565b6060610c3082613ed8565b610c6f576040517f08c379a0000000000000000000000000000000000000000000000000000000008152600401610c66906153c0565b60405180910390fd5b60145f8381526020019081526020015f20805480602002602001604051908101604052809291908181526020015f905b82821015610ef1578382905f5260205f2090600702016040518060e00160405290815f82015f9054906101000a900473ffffffffffffffffffffffffffffffffffffffff1673ffffffffffffffffffffffffffffffffffffffff1673ffffffffffffffffffffffffffffffffffffffff1681526020016001820154815260200160028201548152602001600382018054610d38906150d7565b80601f0160208091040260200160405190810160405280929190818152602001828054610d64906150d7565b8015610daf5780601f10610d8657610100808354040283529160200191610daf565b820191905f5260205f20905b815481529060010190602001808311610d9257829003601f168201915b50505050508152602001600482018054610dc8906150d7565b80601f0160208091040260200160405190810160405280929190818152602001828054610df4906150d7565b8015610e3f5780601f10610e1657610100808354040283529160200191610e3f565b820191905f5260205f20905b815481529060010190602001808311610e2257829003601f168201915b50505050508152602001600582018054610e58906150d7565b80601f0160208091040260200160405190810160405280929190818152602001828054610e84906150d7565b8015610ecf5780601f10610ea657610100808354040283529160200191610ecf565b820191905f5260205f20905b815481529060010190602001808311610eb257829003601f168201915b5050505050815260200160068201548152505081526020019060010190610c9f565b505050509050919050565b60038181548110610f0b575f80fd5b905f5260205f2090600502015f91509050805f015f9054906101000a900473ffffffffffffffffffffffffffffffffffffffff1690806001015490806002015490806003015490806004015f9054906101000a900460ff16905085565b60011515610f763383611f3a565b15151480610f8a5750610f898133612cec565b5b610fc9576040517f08c379a0000000000000000000000000000000000000000000000000000000008152600401610fc090615428565b60405180910390fd5b5f610fd2613e83565b90505f6040518060400160405280600681526020017f414354495645000000000000000000000000000000000000000000000000000081525090505f6040518060e001604052803373ffffffffffffffffffffffffffffffffffffffff168152602001848152602001858152602001878152602001868152602001838152602001428152509050600281908060018154018082558091505060019003905f5260205f2090600702015f909190919091505f820151815f015f6101000a81548173ffffffffffffffffffffffffffffffffffffffff021916908373ffffffffffffffffffffffffffffffffffffffff160217905550602082015181600101556040820151816002015560608201518160030190816110ef91906152a7565b50608082015181600401908161110591906152a7565b5060a082015181600501908161111b91906152a7565b5060c08201518160060155505060145f8581526020019081526020015f2081908060018154018082558091505060019003905f5260205f2090600702015f909190919091505f820151815f015f6101000a81548173ffffffffffffffffffffffffffffffffffffffff021916908373ffffffffffffffffffffffffffffffffffffffff160217905550602082015181600101556040820151816002015560608201518160030190816111cd91906152a7565b5060808201518160040190816111e391906152a7565b5060a08201518160050190816111f991906152a7565b5060c08201518160060155505082600e5f8681526020019081526020015f208190555083600b5f8581526020019081526020015f208190555083600b5f8581526020019081526020015f208190555082600f5f8681526020019081526020015f205f3373ffffffffffffffffffffffffffffffffffffffff1673ffffffffffffffffffffffffffffffffffffffff1681526020019081526020015f208190555082600c866040516112aa9190615480565b90815260200160405180910390208190555033600d5f8581526020019081526020015f205f6101000a81548173ffffffffffffffffffffffffffffffffffffffff021916908373ffffffffffffffffffffffffffffffffffffffff1602179055503373ffffffffffffffffffffffffffffffffffffffff16847f32b0dc4c94824ad3d0b50eabab2b5035341b4b2165c151b20d242cbdd5d80ce7856040516113529190614b45565b60405180910390a3505050505050565b6011602052815f5260405f20602052805f5260405f205f915091509054906101000a900460ff1681565b5f73ffffffffffffffffffffffffffffffffffffffff168273ffffffffffffffffffffffffffffffffffffffff16036113fa576040517f08c379a00000000000000000000000000000000000000000000000000000000081526004016113f190615024565b60405180910390fd5b600115156114083383611f3a565b15151461144a576040517f08c379a0000000000000000000000000000000000000000000000000000000008152600401611441906154e0565b60405180910390fd5b6114548282612911565b15611494576040517f08c379a000000000000000000000000000000000000000000000000000000000815260040161148b90615548565b60405180910390fd5b61149d81613ed8565b6114dc576040517f08c379a00000000000000000000000000000000000000000000000000000000081526004016114d3906153c0565b60405180910390fd5b8160075f8381526020019081526020015f205f6101000a81548173ffffffffffffffffffffffffffffffffffffffff021916908373ffffffffffffffffffffffffffffffffffffffff1602179055508060085f8473ffffffffffffffffffffffffffffffffffffffff1673ffffffffffffffffffffffffffffffffffffffff1681526020019081526020015f20819055508173ffffffffffffffffffffffffffffffffffffffff16817f7aae135b48d3946997a0f965bd75c2f432dd0e7f1c1b61011afde7df1edc38a760405160405180910390a35050565b6115bd614023565b5f5f90505b60028054905081101561185b5782600282815481106115e4576115e3615566565b5b905f5260205f209060070201600101540361184e576002818154811061160d5761160c615566565b5b905f5260205f2090600702016040518060e00160405290815f82015f9054906101000a900473ffffffffffffffffffffffffffffffffffffffff1673ffffffffffffffffffffffffffffffffffffffff1673ffffffffffffffffffffffffffffffffffffffff168152602001600182015481526020016002820154815260200160038201805461169c906150d7565b80601f01602080910402602001604051908101604052809291908181526020018280546116c8906150d7565b80156117135780601f106116ea57610100808354040283529160200191611713565b820191905f5260205f20905b8154815290600101906020018083116116f657829003601f168201915b5050505050815260200160048201805461172c906150d7565b80601f0160208091040260200160405190810160405280929190818152602001828054611758906150d7565b80156117a35780601f1061177a576101008083540402835291602001916117a3565b820191905f5260205f20905b81548152906001019060200180831161178657829003601f168201915b505050505081526020016005820180546117bc906150d7565b80601f01602080910402602001604051908101604052809291908181526020018280546117e8906150d7565b80156118335780601f1061180a57610100808354040283529160200191611833565b820191905f5260205f20905b81548152906001019060200180831161181657829003601f168201915b50505050508152602001600682015481525050915050611897565b80806001019150506115c2565b506040517f08c379a000000000000000000000000000000000000000000000000000000000815260040161188e906155dd565b60405180910390fd5b919050565b6118a4614072565b5f5f90505b6003805490508110156119ac5782600382815481106118cb576118ca615566565b5b905f5260205f209060050201600301540361199f57600381815481106118f4576118f3615566565b5b905f5260205f2090600502016040518060a00160405290815f82015f9054906101000a900473ffffffffffffffffffffffffffffffffffffffff1673ffffffffffffffffffffffffffffffffffffffff1673ffffffffffffffffffffffffffffffffffffffff168152602001600182015481526020016002820154815260200160038201548152602001600482015f9054906101000a900460ff1615151515815250509150506119e8565b80806001019150506118a9565b506040517f08c379a00000000000000000000000000000000000000000000000000000000081526004016119df90615645565b60405180910390fd5b919050565b5f6119f782613ed8565b611a36576040517f08c379a0000000000000000000000000000000000000000000000000000000008152600401611a2d906153c0565b60405180910390fd5b5f60075f8481526020019081526020015f205f9054906101000a900473ffffffffffffffffffffffffffffffffffffffff16905080915050919050565b6060611a7e82613ed8565b611abd576040517f08c379a0000000000000000000000000000000000000000000000000000000008152600401611ab4906153c0565b60405180910390fd5b60135f8381526020019081526020015f20805480602002602001604051908101604052809291908181526020015f905b82821015611c01578382905f5260205f2090600202016040518060400160405290815f82018054611b1d906150d7565b80601f0160208091040260200160405190810160405280929190818152602001828054611b49906150d7565b8015611b945780601f10611b6b57610100808354040283529160200191611b94565b820191905f5260205f20905b815481529060010190602001808311611b7757829003601f168201915b50505050508152602001600182015f9054906101000a900473ffffffffffffffffffffffffffffffffffffffff1673ffffffffffffffffffffffffffffffffffffffff1673ffffffffffffffffffffffffffffffffffffffff168152505081526020019060010190611aed565b505050509050919050565b5f5f600d5f8481526020019081526020015f205f9054906101000a900473ffffffffffffffffffffffffffffffffffffffff16905080915050919050565b5f5f60055f8473ffffffffffffffffffffffffffffffffffffffff1673ffffffffffffffffffffffffffffffffffffffff1681526020019081526020015f2090505f818054905011611cd1576040517f08c379a0000000000000000000000000000000000000000000000000000000008152600401611cc8906156ad565b60405180910390fd5b8060018280549050611ce391906156f8565b81548110611cf457611cf3615566565b5b905f5260205f200154915050919050565b60018181548110611d14575f80fd5b905f5260205f2090600202015f91509050805f018054611d33906150d7565b80601f0160208091040260200160405190810160405280929190818152602001828054611d5f906150d7565b8015611daa5780601f10611d8157610100808354040283529160200191611daa565b820191905f5260205f20905b815481529060010190602001808311611d8d57829003601f168201915b505050505090806001015f9054906101000a900473ffffffffffffffffffffffffffffffffffffffff16905082565b5f5f5f90505f60155f600b5f8781526020019081526020015f205481526020019081526020015f20805480602002602001604051908101604052809291908181526020015f905b82821015611edc578382905f5260205f2090600502016040518060a00160405290815f82015f9054906101000a900473ffffffffffffffffffffffffffffffffffffffff1673ffffffffffffffffffffffffffffffffffffffff1673ffffffffffffffffffffffffffffffffffffffff168152602001600182015481526020016002820154815260200160038201548152602001600482015f9054906101000a900460ff16151515158152505081526020019060010190611e20565b5050505090505f5f90505b8151811015611f2f57818181518110611f0357611f02615566565b5b602002602001015160800151611f22578280611f1e9061572b565b9350505b8080600101915050611ee7565b508192505050919050565b5f611f4482613ed8565b611f83576040517f08c379a0000000000000000000000000000000000000000000000000000000008152600401611f7a906153c0565b60405180910390fd5b8273ffffffffffffffffffffffffffffffffffffffff1660065f8481526020019081526020015f205f9054906101000a900473ffffffffffffffffffffffffffffffffffffffff1673ffffffffffffffffffffffffffffffffffffffff1603611fef5760019050611ff3565b5f90505b92915050565b5f8181548110612007575f80fd5b905f5260205f2090600602015f91509050805f018054612026906150d7565b80601f0160208091040260200160405190810160405280929190818152602001828054612052906150d7565b801561209d5780601f106120745761010080835404028352916020019161209d565b820191905f5260205f20905b81548152906001019060200180831161208057829003601f168201915b5050505050908060010180546120b2906150d7565b80601f01602080910402602001604051908101604052809291908181526020018280546120de906150d7565b80156121295780601f1061210057610100808354040283529160200191612129565b820191905f5260205f20905b81548152906001019060200180831161210c57829003601f168201915b50505050509080600201805461213e906150d7565b80601f016020809104026020016040519081016040528092919081815260200182805461216a906150d7565b80156121b55780601f1061218c576101008083540402835291602001916121b5565b820191905f5260205f20905b81548152906001019060200180831161219857829003601f168201915b5050505050908060030180546121ca906150d7565b80601f01602080910402602001604051908101604052809291908181526020018280546121f6906150d7565b80156122415780601f1061221857610100808354040283529160200191612241565b820191905f5260205f20905b81548152906001019060200180831161222457829003601f168201915b505050505090806004015f9054906101000a900473ffffffffffffffffffffffffffffffffffffffff16908060050154905086565b60028181548110612285575f80fd5b905f5260205f2090600702015f91509050805f015f9054906101000a900473ffffffffffffffffffffffffffffffffffffffff16908060010154908060020154908060030180546122d5906150d7565b80601f0160208091040260200160405190810160405280929190818152602001828054612301906150d7565b801561234c5780601f106123235761010080835404028352916020019161234c565b820191905f5260205f20905b81548152906001019060200180831161232f57829003601f168201915b505050505090806004018054612361906150d7565b80601f016020809104026020016040519081016040528092919081815260200182805461238d906150d7565b80156123d85780601f106123af576101008083540402835291602001916123d8565b820191905f5260205f20905b8154815290600101906020018083116123bb57829003601f168201915b5050505050908060050180546123ed906150d7565b80601f0160208091040260200160405190810160405280929190818152602001828054612419906150d7565b80156124645780601f1061243b57610100808354040283529160200191612464565b820191905f5260205f20905b81548152906001019060200180831161244757829003601f168201915b5050505050908060060154905087565b5f61247e826115b5565b90505f6202a3008260c001516124949190615772565b90508042116124d8576040517f08c379a00000000000000000000000000000000000000000000000000000000081526004016124cf906157ef565b60405180910390fd5b6040518060400160405280600681526020017f4143544956450000000000000000000000000000000000000000000000000000815250805190602001208260a001518051906020012014612561576040517f08c379a000000000000000000000000000000000000000000000000000000000815260040161255890615857565b60405180910390fd5b5f61256b846131e6565b90506040518060400160405280600881526020017f417070726f766564000000000000000000000000000000000000000000000000815250805190602001208180519060200120036125fb576125f6846040518060400160405280600881526020017f415050524f564544000000000000000000000000000000000000000000000000815250613f4e565b6126ca565b6040518060400160405280600881526020017f52656a65637465640000000000000000000000000000000000000000000000008152508051906020012081805190602001200361268957612684846040518060400160405280600881526020017f52454a4543544544000000000000000000000000000000000000000000000000815250613f4e565b6126c9565b6126c8846040518060400160405280600481526020017f5449454400000000000000000000000000000000000000000000000000000000815250613f4e565b5b5b612709846040518060400160405280600881526020017f4152434849564544000000000000000000000000000000000000000000000000815250613f4e565b50505050565b5f5f600c836040516127219190615480565b908152602001604051809103902054905080915050919050565b5f5f5f90505f60155f600b5f8781526020019081526020015f205481526020019081526020015f20805480602002602001604051908101604052809291908181526020015f905b8282101561283e578382905f5260205f2090600502016040518060a00160405290815f82015f9054906101000a900473ffffffffffffffffffffffffffffffffffffffff1673ffffffffffffffffffffffffffffffffffffffff1673ffffffffffffffffffffffffffffffffffffffff168152602001600182015481526020016002820154815260200160038201548152602001600482015f9054906101000a900460ff16151515158152505081526020019060010190612782565b5050505090505f5f90505b81518110156128925781818151811061286557612864615566565b5b602002602001015160800151156128855782806128819061572b565b9350505b8080600101915050612849565b508192505050919050565b5f6128a782613ed8565b6128e6576040517f08c379a00000000000000000000000000000000000000000000000000000000081526004016128dd906153c0565b60405180910390fd5b81600b5f8581526020019081526020015f205403612907576001905061290b565b5f90505b92915050565b5f61291b82613ed8565b61295a576040517f08c379a0000000000000000000000000000000000000000000000000000000008152600401612951906153c0565b60405180910390fd5b8273ffffffffffffffffffffffffffffffffffffffff1660075f8481526020019081526020015f205f9054906101000a900473ffffffffffffffffffffffffffffffffffffffff1673ffffffffffffffffffffffffffffffffffffffff16036129c657600190506129ca565b5f90505b92915050565b60605f805480602002602001604051908101604052809291908181526020015f905b82821015612cc0578382905f5260205f2090600602016040518060c00160405290815f82018054612a22906150d7565b80601f0160208091040260200160405190810160405280929190818152602001828054612a4e906150d7565b8015612a995780601f10612a7057610100808354040283529160200191612a99565b820191905f5260205f20905b815481529060010190602001808311612a7c57829003601f168201915b50505050508152602001600182018054612ab2906150d7565b80601f0160208091040260200160405190810160405280929190818152602001828054612ade906150d7565b8015612b295780601f10612b0057610100808354040283529160200191612b29565b820191905f5260205f20905b815481529060010190602001808311612b0c57829003601f168201915b50505050508152602001600282018054612b42906150d7565b80601f0160208091040260200160405190810160405280929190818152602001828054612b6e906150d7565b8015612bb95780601f10612b9057610100808354040283529160200191612bb9565b820191905f5260205f20905b815481529060010190602001808311612b9c57829003601f168201915b50505050508152602001600382018054612bd2906150d7565b80601f0160208091040260200160405190810160405280929190818152602001828054612bfe906150d7565b8015612c495780601f10612c2057610100808354040283529160200191612c49565b820191905f5260205f20905b815481529060010190602001808311612c2c57829003601f168201915b50505050508152602001600482015f9054906101000a900473ffffffffffffffffffffffffffffffffffffffff1673ffffffffffffffffffffffffffffffffffffffff1673ffffffffffffffffffffffffffffffffffffffff168152602001600582015481525050815260200190600101906129f2565b50505050905090565b5f5f612cd48361270f565b90505f612ce082611c0c565b90508092505050919050565b5f5f73ffffffffffffffffffffffffffffffffffffffff168273ffffffffffffffffffffffffffffffffffffffff1603612d5b576040517f08c379a0000000000000000000000000000000000000000000000000000000008152600401612d5290615024565b60405180910390fd5b612d6483613ed8565b612da3576040517f08c379a0000000000000000000000000000000000000000000000000000000008152600401612d9a906153c0565b60405180910390fd5b60165f8481526020019081526020015f205f8373ffffffffffffffffffffffffffffffffffffffff1673ffffffffffffffffffffffffffffffffffffffff1681526020019081526020015f205f9054906101000a900460ff16905092915050565b5f612e0e82613ed8565b612e4d576040517f08c379a0000000000000000000000000000000000000000000000000000000008152600401612e44906153c0565b60405180910390fd5b81600c84604051612e5e9190615480565b90815260200160405180910390205403612e7b5760019050612e7f565b5f90505b92915050565b6012602052815f5260405f20602052805f5260405f205f91509150505481565b5f73ffffffffffffffffffffffffffffffffffffffff168273ffffffffffffffffffffffffffffffffffffffff1603612f13576040517f08c379a0000000000000000000000000000000000000000000000000000000008152600401612f0a90615024565b60405180910390fd5b60011515612f213383611f3a565b151514612f63576040517f08c379a0000000000000000000000000000000000000000000000000000000008152600401612f5a906154e0565b60405180910390fd5b5f60405180604001604052808581526020018473ffffffffffffffffffffffffffffffffffffffff168152509050600181908060018154018082558091505060019003905f5260205f2090600202015f909190919091505f820151815f019081612fcd91906152a7565b506020820151816001015f6101000a81548173ffffffffffffffffffffffffffffffffffffffff021916908373ffffffffffffffffffffffffffffffffffffffff160217905550505060095f8381526020019081526020015f2083908060018154018082558091505060019003905f5260205f20015f9091909190916101000a81548173ffffffffffffffffffffffffffffffffffffffff021916908373ffffffffffffffffffffffffffffffffffffffff160217905550600160165f8481526020019081526020015f205f8573ffffffffffffffffffffffffffffffffffffffff1673ffffffffffffffffffffffffffffffffffffffff1681526020019081526020015f205f6101000a81548160ff02191690831515021790555083600a5f8481526020019081526020015f20908161310791906152a7565b5060135f8381526020019081526020015f2081908060018154018082558091505060019003905f5260205f2090600202015f909190919091505f820151815f01908161315391906152a7565b506020820151816001015f6101000a81548173ffffffffffffffffffffffffffffffffffffffff021916908373ffffffffffffffffffffffffffffffffffffffff16021790555050508273ffffffffffffffffffffffffffffffffffffffff16827ff6e9d5ab220fa4fa85075049b5ec972f4af218fa64210d5abcec7153d4c8578b60405160405180910390a350505050565b60605f6131f28361273b565b90505f6131fe84611dd9565b905080821115613247576040518060400160405280600881526020017f417070726f766564000000000000000000000000000000000000000000000000815250925050506132c9565b8181111561328e576040518060400160405280600881526020017f52656a6563746564000000000000000000000000000000000000000000000000815250925050506132c9565b6040518060400160405280600481526020017f5469656400000000000000000000000000000000000000000000000000000000815250925050505b919050565b5f60125f8473ffffffffffffffffffffffffffffffffffffffff1673ffffffffffffffffffffffffffffffffffffffff1681526020019081526020015f205f8381526020019081526020015f2054905092915050565b60165f8281526020019081526020015f205f3373ffffffffffffffffffffffffffffffffffffffff1673ffffffffffffffffffffffffffffffffffffffff1681526020019081526020015f205f9054906101000a900460ff166133bc576040517f08c379a00000000000000000000000000000000000000000000000000000000081526004016133b3906158bf565b60405180910390fd5b60115f3373ffffffffffffffffffffffffffffffffffffffff1673ffffffffffffffffffffffffffffffffffffffff1681526020019081526020015f205f8381526020019081526020015f205f9054906101000a900460ff1615613455576040517f08c379a000000000000000000000000000000000000000000000000000000000815260040161344c90615927565b60405180910390fd5b5f61345e613e83565b90505f6040518060a001604052803373ffffffffffffffffffffffffffffffffffffffff168152602001858152602001848152602001838152602001600115158152509050600381908060018154018082558091505060019003905f5260205f2090600502015f909190919091505f820151815f015f6101000a81548173ffffffffffffffffffffffffffffffffffffffff021916908373ffffffffffffffffffffffffffffffffffffffff1602179055506020820151816001015560408201518160020155606082015181600301556080820151816004015f6101000a81548160ff021916908315150217905550505060155f600b5f8781526020019081526020015f205481526020019081526020015f2081908060018154018082558091505060019003905f5260205f2090600502015f909190919091505f820151815f015f6101000a81548173ffffffffffffffffffffffffffffffffffffffff021916908373ffffffffffffffffffffffffffffffffffffffff1602179055506020820151816001015560408201518160020155606082015181600301556080820151816004015f6101000a81548160ff0219169083151502179055505050600160115f3373ffffffffffffffffffffffffffffffffffffffff1673ffffffffffffffffffffffffffffffffffffffff1681526020019081526020015f205f8681526020019081526020015f205f6101000a81548160ff0219169083151502179055508160125f3373ffffffffffffffffffffffffffffffffffffffff1673ffffffffffffffffffffffffffffffffffffffff1681526020019081526020015f205f8681526020019081526020015f2081905550600b5f8581526020019081526020015f20543373ffffffffffffffffffffffffffffffffffffffff167f9a36cde400974442f7155ef178030cf1ee008be5cfb97c9a7f952bec5c285be0868560405161372a929190615945565b60405180910390a350505050565b5f61374282613ed8565b613781576040517f08c379a0000000000000000000000000000000000000000000000000000000008152600401613778906153c0565b60405180910390fd5b5f60065f8481526020019081526020015f205f9054906101000a900473ffffffffffffffffffffffffffffffffffffffff16905080915050919050565b60165f8281526020019081526020015f205f3373ffffffffffffffffffffffffffffffffffffffff1673ffffffffffffffffffffffffffffffffffffffff1681526020019081526020015f205f9054906101000a900460ff16613856576040517f08c379a000000000000000000000000000000000000000000000000000000000815260040161384d906158bf565b60405180910390fd5b60115f3373ffffffffffffffffffffffffffffffffffffffff1673ffffffffffffffffffffffffffffffffffffffff1681526020019081526020015f205f8381526020019081526020015f205f9054906101000a900460ff16156138ef576040517f08c379a00000000000000000000000000000000000000000000000000000000081526004016138e690615927565b60405180910390fd5b5f6138f8613e83565b90505f6040518060a001604052803373ffffffffffffffffffffffffffffffffffffffff1681526020018581526020018481526020018381526020015f15158152509050600381908060018154018082558091505060019003905f5260205f2090600502015f909190919091505f820151815f015f6101000a81548173ffffffffffffffffffffffffffffffffffffffff021916908373ffffffffffffffffffffffffffffffffffffffff1602179055506020820151816001015560408201518160020155606082015181600301556080820151816004015f6101000a81548160ff021916908315150217905550505060155f600b5f8781526020019081526020015f205481526020019081526020015f2081908060018154018082558091505060019003905f5260205f2090600502015f909190919091505f820151815f015f6101000a81548173ffffffffffffffffffffffffffffffffffffffff021916908373ffffffffffffffffffffffffffffffffffffffff1602179055506020820151816001015560408201518160020155606082015181600301556080820151816004015f6101000a81548160ff0219169083151502179055505050600160115f3373ffffffffffffffffffffffffffffffffffffffff1673ffffffffffffffffffffffffffffffffffffffff1681526020019081526020015f205f8681526020019081526020015f205f6101000a81548160ff0219169083151502179055508160125f3373ffffffffffffffffffffffffffffffffffffffff1673ffffffffffffffffffffffffffffffffffffffff1681526020019081526020015f205f8681526020019081526020015f2081905550600b5f8581526020019081526020015f20543373ffffffffffffffffffffffffffffffffffffffff167f721a588c730db340ef5c3e934161e312f729e548b83c1429f5291e41883e3e908685604051613bc3929190615945565b60405180910390a350505050565b60605f5f67ffffffffffffffff811115613bee57613bed61430c565b5b604051908082528060200260200182016040528015613c2757816020015b613c146140b4565b815260200190600190039081613c0c5790505b5090505f5f90505b600180549050811015613e7957838051906020012060018281548110613c5857613c57615566565b5b905f5260205f2090600202015f01604051613c739190615a08565b604051809103902003613e6c575f60018351613c8f9190615772565b67ffffffffffffffff811115613ca857613ca761430c565b5b604051908082528060200260200182016040528015613ce157816020015b613cce6140b4565b815260200190600190039081613cc65790505b5090505f5f90505b8351811015613d3857838181518110613d0557613d04615566565b5b6020026020010151828281518110613d2057613d1f615566565b5b60200260200101819052508080600101915050613ce9565b5060018281548110613d4d57613d4c615566565b5b905f5260205f2090600202016040518060400160405290815f82018054613d73906150d7565b80601f0160208091040260200160405190810160405280929190818152602001828054613d9f906150d7565b8015613dea5780601f10613dc157610100808354040283529160200191613dea565b820191905f5260205f20905b815481529060010190602001808311613dcd57829003601f168201915b50505050508152602001600182015f9054906101000a900473ffffffffffffffffffffffffffffffffffffffff1673ffffffffffffffffffffffffffffffffffffffff1673ffffffffffffffffffffffffffffffffffffffff168152505081845181518110613e5c57613e5b615566565b5b6020026020010181905250809250505b8080600101915050613c2f565b5080915050919050565b5f5f42454360185433604051602001613ea0959493929190615a83565b604051602081830303815290604052805190602001209050600760185f828254613eca9190615772565b925050819055508091505090565b5f5f73ffffffffffffffffffffffffffffffffffffffff1660065f8481526020019081526020015f205f9054906101000a900473ffffffffffffffffffffffffffffffffffffffff1673ffffffffffffffffffffffffffffffffffffffff1614613f455760019050613f49565b5f90505b919050565b5f5f90505b60028054905081101561401e578260028281548110613f7557613f74615566565b5b905f5260205f2090600702016001015403614011578160028281548110613f9f57613f9e615566565b5b905f5260205f2090600702016005019081613fba91906152a7565b508160145f600b5f8781526020019081526020015f205481526020019081526020015f208281548110613ff057613fef615566565b5b905f5260205f209060070201600501908161400b91906152a7565b5061401e565b8080600101915050613f53565b505050565b6040518060e001604052805f73ffffffffffffffffffffffffffffffffffffffff1681526020015f81526020015f81526020016060815260200160608152602001606081526020015f81525090565b6040518060a001604052805f73ffffffffffffffffffffffffffffffffffffffff1681526020015f81526020015f81526020015f81526020015f151581525090565b6040518060400160405280606081526020015f73ffffffffffffffffffffffffffffffffffffffff1681525090565b5f604051905090565b5f5ffd5b5f5ffd5b5f819050919050565b614106816140f4565b8114614110575f5ffd5b50565b5f81359050614121816140fd565b92915050565b5f73ffffffffffffffffffffffffffffffffffffffff82169050919050565b5f61415082614127565b9050919050565b61416081614146565b811461416a575f5ffd5b50565b5f8135905061417b81614157565b92915050565b5f5f60408385031215614197576141966140ec565b5b5f6141a485828601614113565b92505060206141b58582860161416d565b9150509250929050565b5f8115159050919050565b6141d3816141bf565b82525050565b5f6020820190506141ec5f8301846141ca565b92915050565b5f60208284031215614207576142066140ec565b5b5f6142148482850161416d565b91505092915050565b5f81519050919050565b5f82825260208201905092915050565b5f819050602082019050919050565b61424f816140f4565b82525050565b5f6142608383614246565b60208301905092915050565b5f602082019050919050565b5f6142828261421d565b61428c8185614227565b935061429783614237565b805f5b838110156142c75781516142ae8882614255565b97506142b98361426c565b92505060018101905061429a565b5085935050505092915050565b5f6020820190508181035f8301526142ec8184614278565b905092915050565b5f5ffd5b5f5ffd5b5f601f19601f8301169050919050565b7f4e487b71000000000000000000000000000000000000000000000000000000005f52604160045260245ffd5b614342826142fc565b810181811067ffffffffffffffff821117156143615761436061430c565b5b80604052505050565b5f6143736140e3565b905061437f8282614339565b919050565b5f67ffffffffffffffff82111561439e5761439d61430c565b5b6143a7826142fc565b9050602081019050919050565b828183375f83830152505050565b5f6143d46143cf84614384565b61436a565b9050828152602081018484840111156143f0576143ef6142f8565b5b6143fb8482856143b4565b509392505050565b5f82601f830112614417576144166142f4565b5b81356144278482602086016143c2565b91505092915050565b5f5f5f5f60808587031215614448576144476140ec565b5b5f85013567ffffffffffffffff811115614465576144646140f0565b5b61447187828801614403565b945050602085013567ffffffffffffffff811115614492576144916140f0565b5b61449e87828801614403565b935050604085013567ffffffffffffffff8111156144bf576144be6140f0565b5b6144cb87828801614403565b925050606085013567ffffffffffffffff8111156144ec576144eb6140f0565b5b6144f887828801614403565b91505092959194509250565b5f60208284031215614519576145186140ec565b5b5f61452684828501614113565b91505092915050565b5f81519050919050565b5f82825260208201905092915050565b5f819050602082019050919050565b61456181614146565b82525050565b5f81519050919050565b5f82825260208201905092915050565b8281835e5f83830152505050565b5f61459982614567565b6145a38185614571565b93506145b3818560208601614581565b6145bc816142fc565b840191505092915050565b5f819050919050565b6145d9816145c7565b82525050565b5f60e083015f8301516145f45f860182614558565b5060208301516146076020860182614246565b50604083015161461a6040860182614246565b5060608301518482036060860152614632828261458f565b9150506080830151848203608086015261464c828261458f565b91505060a083015184820360a0860152614666828261458f565b91505060c083015161467b60c08601826145d0565b508091505092915050565b5f61469183836145df565b905092915050565b5f602082019050919050565b5f6146af8261452f565b6146b98185614539565b9350836020820285016146cb85614549565b805f5b8581101561470657848403895281516146e78582614686565b94506146f283614699565b925060208a019950506001810190506146ce565b50829750879550505050505092915050565b5f6020820190508181035f83015261473081846146a5565b905092915050565b614741816145c7565b811461474b575f5ffd5b50565b5f8135905061475c81614738565b92915050565b5f60208284031215614777576147766140ec565b5b5f6147848482850161474e565b91505092915050565b61479681614146565b82525050565b6147a5816140f4565b82525050565b5f60a0820190506147be5f83018861478d565b6147cb602083018761479c565b6147d8604083018661479c565b6147e5606083018561479c565b6147f260808301846141ca565b9695505050505050565b5f5f5f60608486031215614813576148126140ec565b5b5f84013567ffffffffffffffff8111156148305761482f6140f0565b5b61483c86828701614403565b935050602084013567ffffffffffffffff81111561485d5761485c6140f0565b5b61486986828701614403565b925050604061487a86828701614113565b9150509250925092565b5f5f6040838503121561489a576148996140ec565b5b5f6148a78582860161416d565b92505060206148b885828601614113565b9150509250929050565b5f60e083015f8301516148d75f860182614558565b5060208301516148ea6020860182614246565b5060408301516148fd6040860182614246565b5060608301518482036060860152614915828261458f565b9150506080830151848203608086015261492f828261458f565b91505060a083015184820360a0860152614949828261458f565b91505060c083015161495e60c08601826145d0565b508091505092915050565b5f6020820190508181035f83015261498181846148c2565b905092915050565b614992816141bf565b82525050565b60a082015f8201516149ac5f850182614558565b5060208201516149bf6020850182614246565b5060408201516149d26040850182614246565b5060608201516149e56060850182614246565b5060808201516149f86080850182614989565b50505050565b5f60a082019050614a115f830184614998565b92915050565b5f602082019050614a2a5f83018461478d565b92915050565b5f81519050919050565b5f82825260208201905092915050565b5f819050602082019050919050565b5f604083015f8301518482035f860152614a73828261458f565b9150506020830151614a886020860182614558565b508091505092915050565b5f614a9e8383614a59565b905092915050565b5f602082019050919050565b5f614abc82614a30565b614ac68185614a3a565b935083602082028501614ad885614a4a565b805f5b85811015614b135784840389528151614af48582614a93565b9450614aff83614aa6565b925060208a01995050600181019050614adb565b50829750879550505050505092915050565b5f6020820190508181035f830152614b3d8184614ab2565b905092915050565b5f602082019050614b585f83018461479c565b92915050565b5f82825260208201905092915050565b5f614b7882614567565b614b828185614b5e565b9350614b92818560208601614581565b614b9b816142fc565b840191505092915050565b5f6040820190508181035f830152614bbe8185614b6e565b9050614bcd602083018461478d565b9392505050565b614bdd816145c7565b82525050565b5f602082019050614bf65f830184614bd4565b92915050565b5f60c0820190508181035f830152614c148189614b6e565b90508181036020830152614c288188614b6e565b90508181036040830152614c3c8187614b6e565b90508181036060830152614c508186614b6e565b9050614c5f608083018561478d565b614c6c60a083018461479c565b979650505050505050565b5f60e082019050614c8a5f83018a61478d565b614c97602083018961479c565b614ca4604083018861479c565b8181036060830152614cb68187614b6e565b90508181036080830152614cca8186614b6e565b905081810360a0830152614cde8185614b6e565b9050614ced60c0830184614bd4565b98975050505050505050565b5f60208284031215614d0e57614d0d6140ec565b5b5f82013567ffffffffffffffff811115614d2b57614d2a6140f0565b5b614d3784828501614403565b91505092915050565b5f5f60408385031215614d5657614d556140ec565b5b5f614d6385828601614113565b9250506020614d7485828601614113565b9150509250929050565b5f81519050919050565b5f82825260208201905092915050565b5f819050602082019050919050565b5f60c083015f8301518482035f860152614dc1828261458f565b91505060208301518482036020860152614ddb828261458f565b91505060408301518482036040860152614df5828261458f565b91505060608301518482036060860152614e0f828261458f565b9150506080830151614e246080860182614558565b5060a0830151614e3760a0860182614246565b508091505092915050565b5f614e4d8383614da7565b905092915050565b5f602082019050919050565b5f614e6b82614d7e565b614e758185614d88565b935083602082028501614e8785614d98565b805f5b85811015614ec25784840389528151614ea38582614e42565b9450614eae83614e55565b925060208a01995050600181019050614e8a565b50829750879550505050505092915050565b5f6020820190508181035f830152614eec8184614e61565b905092915050565b5f5f60408385031215614f0a57614f096140ec565b5b5f83013567ffffffffffffffff811115614f2757614f266140f0565b5b614f3385828601614403565b9250506020614f4485828601614113565b9150509250929050565b5f5f5f60608486031215614f6557614f646140ec565b5b5f84013567ffffffffffffffff811115614f8257614f816140f0565b5b614f8e86828701614403565b9350506020614f9f8682870161416d565b9250506040614fb086828701614113565b9150509250925092565b5f6020820190508181035f830152614fd28184614b6e565b905092915050565b7f5a65726f416464726573734e6f74416c6c6f77656400000000000000000000005f82015250565b5f61500e601583614b5e565b915061501982614fda565b602082019050919050565b5f6020820190508181035f83015261503b81615002565b9050919050565b7f4e6f44414f73466f756e64466f725468697343726561746f72000000000000005f82015250565b5f615076601983614b5e565b915061508182615042565b602082019050919050565b5f6020820190508181035f8301526150a38161506a565b9050919050565b7f4e487b71000000000000000000000000000000000000000000000000000000005f52602260045260245ffd5b5f60028204905060018216806150ee57607f821691505b602082108103615101576151006150aa565b5b50919050565b5f819050815f5260205f209050919050565b5f6020601f8301049050919050565b5f82821b905092915050565b5f600883026151637fffffffffffffffffffffffffffffffffffffffffffffffffffffffffffffffff82615128565b61516d8683615128565b95508019841693508086168417925050509392505050565b5f819050919050565b5f6151a86151a361519e846145c7565b615185565b6145c7565b9050919050565b5f819050919050565b6151c18361518e565b6151d56151cd826151af565b848454615134565b825550505050565b5f5f905090565b6151ec6151dd565b6151f78184846151b8565b505050565b5b8181101561521a5761520f5f826151e4565b6001810190506151fd565b5050565b601f82111561525f5761523081615107565b61523984615119565b81016020851015615248578190505b61525c61525485615119565b8301826151fc565b50505b505050565b5f82821c905092915050565b5f61527f5f1984600802615264565b1980831691505092915050565b5f6152978383615270565b9150826002028217905092915050565b6152b082614567565b67ffffffffffffffff8111156152c9576152c861430c565b5b6152d382546150d7565b6152de82828561521e565b5f60209050601f83116001811461530f575f84156152fd578287015190505b615307858261528c565b86555061536e565b601f19841661531d86615107565b5f5b828110156153445784890151825560018201915060208501945060208101905061531f565b86831015615361578489015161535d601f891682615270565b8355505b6001600288020188555050505b505050505050565b7f496e76616c696444616f496400000000000000000000000000000000000000005f82015250565b5f6153aa600c83614b5e565b91506153b582615376565b602082019050919050565b5f6020820190508181035f8301526153d78161539e565b9050919050565b7f4f6e6c794d656d6265724f7243726561746f72000000000000000000000000005f82015250565b5f615412601383614b5e565b915061541d826153de565b602082019050919050565b5f6020820190508181035f83015261543f81615406565b9050919050565b5f81905092915050565b5f61545a82614567565b6154648185615446565b9350615474818560208601614581565b80840191505092915050565b5f61548b8284615450565b915081905092915050565b7f4f6e6c7943726561746f720000000000000000000000000000000000000000005f82015250565b5f6154ca600b83614b5e565b91506154d582615496565b602082019050919050565b5f6020820190508181035f8301526154f7816154be565b9050919050565b7f4d534947416c72656164795365740000000000000000000000000000000000005f82015250565b5f615532600e83614b5e565b915061553d826154fe565b602082019050919050565b5f6020820190508181035f83015261555f81615526565b9050919050565b7f4e487b71000000000000000000000000000000000000000000000000000000005f52603260045260245ffd5b7f50726f706f73616c6e6f74666f756e64000000000000000000000000000000005f82015250565b5f6155c7601083614b5e565b91506155d282615593565b602082019050919050565b5f6020820190508181035f8301526155f4816155bb565b9050919050565b7f566f74656e6f74666f756e6400000000000000000000000000000000000000005f82015250565b5f61562f600c83614b5e565b915061563a826155fb565b602082019050919050565b5f6020820190508181035f83015261565c81615623565b9050919050565b7f4e6f2044414f73666f756e64666f727468697363726561746f720000000000005f82015250565b5f615697601a83614b5e565b91506156a282615663565b602082019050919050565b5f6020820190508181035f8301526156c48161568b565b9050919050565b7f4e487b71000000000000000000000000000000000000000000000000000000005f52601160045260245ffd5b5f615702826145c7565b915061570d836145c7565b9250828203905081811115615725576157246156cb565b5b92915050565b5f615735826145c7565b91507fffffffffffffffffffffffffffffffffffffffffffffffffffffffffffffffff8203615767576157666156cb565b5b600182019050919050565b5f61577c826145c7565b9150615787836145c7565b925082820190508082111561579f5761579e6156cb565b5b92915050565b7f57726f6e67416374696f6e566f74696e67496e50726f677265737300000000005f82015250565b5f6157d9601b83614b5e565b91506157e4826157a5565b602082019050919050565b5f6020820190508181035f830152615806816157cd565b9050919050565b7f566f74696e67416c7265616479456e64656400000000000000000000000000005f82015250565b5f615841601283614b5e565b915061584c8261580d565b602082019050919050565b5f6020820190508181035f83015261586e81615835565b9050919050565b7f4f6e6c794d656d626572000000000000000000000000000000000000000000005f82015250565b5f6158a9600a83614b5e565b91506158b482615875565b602082019050919050565b5f6020820190508181035f8301526158d68161589d565b9050919050565b7f566f7465724672617564417474656d7074446f6e74547279416761696e0000005f82015250565b5f615911601d83614b5e565b915061591c826158dd565b602082019050919050565b5f6020820190508181035f83015261593e81615905565b9050919050565b5f6040820190506159585f83018561479c565b615965602083018461479c565b9392505050565b5f81905092915050565b5f819050815f5260205f209050919050565b5f8154615994816150d7565b61599e818661596c565b9450600182165f81146159b857600181146159cd576159ff565b60ff19831686528115158202860193506159ff565b6159d685615976565b5f5b838110156159f7578154818901526001820191506020810190506159d8565b838801955050505b50505092915050565b5f615a138284615988565b915081905092915050565b5f819050919050565b615a38615a33826145c7565b615a1e565b82525050565b5f8160601b9050919050565b5f615a5482615a3e565b9050919050565b5f615a6582615a4a565b9050919050565b615a7d615a7882614146565b615a5b565b82525050565b5f615a8e8288615a27565b602082019150615a9e8287615a27565b602082019150615aae8286615a27565b602082019150615abe8285615a27565b602082019150615ace8284615a6c565b601482019150819050969550505050505056fea26469706673582212207b0911ac0007777c25d53f8757e1905189b330402b7f59bc892db8b2cf22bc2864736f6c634300081c0033",
        "linkReferences": {}
    },
    "methodIdentifiers": {
        "UserAddressToProposalIdToVoteId(address,bytes32)": "cd201241",
        "addMemberToDao(string,address,bytes32)": "d303b3ef",
        "calculateProposalOutcome(bytes32)": "8e93088d",
        "createDao(string,string,string,string)": "1b44c40e",
        "createProposal(string,string,bytes32)": "4140a61d",
        "doesProposalTitleXExistinDaoIdY(string,bytes32)": "c9471aa1",
        "doesProposalXExistInDaoY(bytes32,bytes32)": "b6d56e5f",
        "downVote(bytes32,bytes32)": "ecf57cc9",
        "getDaoCreatorByDaoId(bytes32)": "ddc0b4f1",
        "getDaoIdsByCreatorAddress(address)": "16d8dfdd",
        "getDaoMembers(bytes32)": "6e2a2f5e",
        "getDaoMultisigByDaoId(bytes32)": "67aecd27",
        "getDaosInPlatformArr()": "bcb74f52",
        "getDownVotes(bytes32)": "75b7fabb",
        "getLatestDaoIdByCreatorX(address)": "71e25d00",
        "getMemberDetails(string)": "fe1d3fd2",
        "getProposalIdByTitle(string)": "9316e754",
        "getProposalOutcome(bytes32)": "d32680df",
        "getProposalOwnerById(bytes32)": "705a485d",
        "getProposalOwnerByTitle(string)": "bdd73fb9",
        "getProposalXById(bytes32)": "5977c163",
        "getProposals(bytes32)": "1c42a694",
        "getUpVotes(bytes32)": "b1ea29c6",
        "getVoteIdByUserAddress(address,bytes32)": "db519738",
        "getVoteXById(bytes32)": "62932d2c",
        "hasVoted(address,bytes32)": "4a1dc5cc",
        "isDaoCreator(address,bytes32)": "85844c7e",
        "isMember(bytes32,address)": "10ad56b3",
        "isMultiSigAlreadySet(address,bytes32)": "baa94c6e",
        "isYMemberOfDaoX(bytes32,address)": "c3419495",
        "memberDetails(uint256)": "74afc4db",
        "platformDaoList(uint256)": "86c7be58",
        "platformProposalList(uint256)": "8d775445",
        "setDaoMultiSigById(address,bytes32)": "4b1d60ea",
        "upVote(bytes32,bytes32)": "db5ba9ca",
        "voteDetails(uint256)": "200549d5"
    },
    "id": 27
}